{
  "_format": "hh-sol-artifact-1",
  "contractName": "MyEpicGame",
  "sourceName": "contracts/MyEpicGame.sol",
  "abi": [
    {
      "inputs": [
        {
          "internalType": "string",
          "name": "bossName",
          "type": "string"
        },
        {
          "internalType": "string",
          "name": "bossImageURI",
          "type": "string"
        },
        {
          "internalType": "uint256",
          "name": "bossHp",
          "type": "uint256"
        },
        {
          "internalType": "uint256",
          "name": "bossAttackDamage",
          "type": "uint256"
        },
        {
          "internalType": "string[]",
          "name": "characterNames",
          "type": "string[]"
        },
        {
          "internalType": "string[]",
          "name": "characterImageURIs",
          "type": "string[]"
        },
        {
          "internalType": "uint256[]",
          "name": "characterHp",
          "type": "uint256[]"
        },
        {
          "internalType": "uint256[]",
          "name": "characterAttackDmg",
          "type": "uint256[]"
        },
        {
          "internalType": "uint256[]",
          "name": "characterShield",
          "type": "uint256[]"
        }
      ],
      "stateMutability": "nonpayable",
      "type": "constructor"
    },
    {
      "anonymous": false,
      "inputs": [
        {
          "indexed": true,
          "internalType": "address",
          "name": "owner",
          "type": "address"
        },
        {
          "indexed": true,
          "internalType": "address",
          "name": "approved",
          "type": "address"
        },
        {
          "indexed": true,
          "internalType": "uint256",
          "name": "tokenId",
          "type": "uint256"
        }
      ],
      "name": "Approval",
      "type": "event"
    },
    {
      "anonymous": false,
      "inputs": [
        {
          "indexed": true,
          "internalType": "address",
          "name": "owner",
          "type": "address"
        },
        {
          "indexed": true,
          "internalType": "address",
          "name": "operator",
          "type": "address"
        },
        {
          "indexed": false,
          "internalType": "bool",
          "name": "approved",
          "type": "bool"
        }
      ],
      "name": "ApprovalForAll",
      "type": "event"
    },
    {
      "anonymous": false,
      "inputs": [
        {
          "indexed": false,
          "internalType": "uint256",
          "name": "newBossHp",
          "type": "uint256"
        },
        {
          "indexed": false,
          "internalType": "uint256",
          "name": "newPlayerHp",
          "type": "uint256"
        }
      ],
      "name": "AttackBossComplete",
      "type": "event"
    },
    {
      "anonymous": false,
      "inputs": [
        {
          "indexed": false,
          "internalType": "uint256",
          "name": "newBossHp",
          "type": "uint256"
        },
        {
          "indexed": false,
          "internalType": "uint256",
          "name": "newPlayerHp",
          "type": "uint256"
        }
      ],
      "name": "AttackCharacterComplete",
      "type": "event"
    },
    {
      "anonymous": false,
      "inputs": [
        {
          "indexed": false,
          "internalType": "address",
          "name": "sender",
          "type": "address"
        },
        {
          "indexed": false,
          "internalType": "uint256",
          "name": "tokenId",
          "type": "uint256"
        },
        {
          "indexed": false,
          "internalType": "uint256",
          "name": "characterIndex",
          "type": "uint256"
        }
      ],
      "name": "CharacterNFTMinted",
      "type": "event"
    },
    {
      "anonymous": false,
      "inputs": [
        {
          "indexed": true,
          "internalType": "address",
          "name": "from",
          "type": "address"
        },
        {
          "indexed": true,
          "internalType": "address",
          "name": "to",
          "type": "address"
        },
        {
          "indexed": true,
          "internalType": "uint256",
          "name": "tokenId",
          "type": "uint256"
        }
      ],
      "name": "Transfer",
      "type": "event"
    },
    {
      "inputs": [
        {
          "internalType": "address",
          "name": "to",
          "type": "address"
        },
        {
          "internalType": "uint256",
          "name": "tokenId",
          "type": "uint256"
        }
      ],
      "name": "approve",
      "outputs": [],
      "stateMutability": "nonpayable",
      "type": "function"
    },
    {
      "inputs": [],
      "name": "attackBoss",
      "outputs": [],
      "stateMutability": "nonpayable",
      "type": "function"
    },
    {
      "inputs": [],
      "name": "attackCharacter",
      "outputs": [],
      "stateMutability": "nonpayable",
      "type": "function"
    },
    {
      "inputs": [
        {
          "internalType": "address",
          "name": "owner",
          "type": "address"
        }
      ],
      "name": "balanceOf",
      "outputs": [
        {
          "internalType": "uint256",
          "name": "",
          "type": "uint256"
        }
      ],
      "stateMutability": "view",
      "type": "function"
    },
    {
      "inputs": [],
      "name": "bigBoss",
      "outputs": [
        {
          "internalType": "string",
          "name": "name",
          "type": "string"
        },
        {
          "internalType": "string",
          "name": "imageURI",
          "type": "string"
        },
        {
          "internalType": "uint256",
          "name": "hp",
          "type": "uint256"
        },
        {
          "internalType": "uint256",
          "name": "maxHp",
          "type": "uint256"
        },
        {
          "internalType": "uint256",
          "name": "attackDamage",
          "type": "uint256"
        }
      ],
      "stateMutability": "view",
      "type": "function"
    },
    {
      "inputs": [],
      "name": "checkIfUserHasNFT",
      "outputs": [
        {
          "components": [
            {
              "internalType": "uint256",
              "name": "characterIndex",
              "type": "uint256"
            },
            {
              "internalType": "string",
              "name": "name",
              "type": "string"
            },
            {
              "internalType": "string",
              "name": "imageURI",
              "type": "string"
            },
            {
              "internalType": "uint256",
              "name": "hp",
              "type": "uint256"
            },
            {
              "internalType": "uint256",
              "name": "maxHp",
              "type": "uint256"
            },
            {
              "internalType": "uint256",
              "name": "attackDamage",
              "type": "uint256"
            },
            {
              "internalType": "uint256",
              "name": "shield",
              "type": "uint256"
            }
          ],
          "internalType": "struct MyEpicGame.CharacterAttributes",
          "name": "",
          "type": "tuple"
        }
      ],
      "stateMutability": "view",
      "type": "function"
    },
    {
      "inputs": [],
      "name": "getAllDefaultCharacters",
      "outputs": [
        {
          "components": [
            {
              "internalType": "uint256",
              "name": "characterIndex",
              "type": "uint256"
            },
            {
              "internalType": "string",
              "name": "name",
              "type": "string"
            },
            {
              "internalType": "string",
              "name": "imageURI",
              "type": "string"
            },
            {
              "internalType": "uint256",
              "name": "hp",
              "type": "uint256"
            },
            {
              "internalType": "uint256",
              "name": "maxHp",
              "type": "uint256"
            },
            {
              "internalType": "uint256",
              "name": "attackDamage",
              "type": "uint256"
            },
            {
              "internalType": "uint256",
              "name": "shield",
              "type": "uint256"
            }
          ],
          "internalType": "struct MyEpicGame.CharacterAttributes[]",
          "name": "",
          "type": "tuple[]"
        }
      ],
      "stateMutability": "view",
      "type": "function"
    },
    {
      "inputs": [
        {
          "internalType": "uint256",
          "name": "tokenId",
          "type": "uint256"
        }
      ],
      "name": "getApproved",
      "outputs": [
        {
          "internalType": "address",
          "name": "",
          "type": "address"
        }
      ],
      "stateMutability": "view",
      "type": "function"
    },
    {
      "inputs": [],
      "name": "getBigBoss",
      "outputs": [
        {
          "components": [
            {
              "internalType": "string",
              "name": "name",
              "type": "string"
            },
            {
              "internalType": "string",
              "name": "imageURI",
              "type": "string"
            },
            {
              "internalType": "uint256",
              "name": "hp",
              "type": "uint256"
            },
            {
              "internalType": "uint256",
              "name": "maxHp",
              "type": "uint256"
            },
            {
              "internalType": "uint256",
              "name": "attackDamage",
              "type": "uint256"
            }
          ],
          "internalType": "struct MyEpicGame.BigBoss",
          "name": "",
          "type": "tuple"
        }
      ],
      "stateMutability": "view",
      "type": "function"
    },
    {
      "inputs": [
        {
          "internalType": "address",
          "name": "owner",
          "type": "address"
        },
        {
          "internalType": "address",
          "name": "operator",
          "type": "address"
        }
      ],
      "name": "isApprovedForAll",
      "outputs": [
        {
          "internalType": "bool",
          "name": "",
          "type": "bool"
        }
      ],
      "stateMutability": "view",
      "type": "function"
    },
    {
      "inputs": [
        {
          "internalType": "uint256",
          "name": "_characterIndex",
          "type": "uint256"
        }
      ],
      "name": "mintCharacterNFT",
      "outputs": [],
      "stateMutability": "nonpayable",
      "type": "function"
    },
    {
      "inputs": [],
      "name": "name",
      "outputs": [
        {
          "internalType": "string",
          "name": "",
          "type": "string"
        }
      ],
      "stateMutability": "view",
      "type": "function"
    },
    {
      "inputs": [
        {
          "internalType": "uint256",
          "name": "",
          "type": "uint256"
        }
      ],
      "name": "nftHolderAttributes",
      "outputs": [
        {
          "internalType": "uint256",
          "name": "characterIndex",
          "type": "uint256"
        },
        {
          "internalType": "string",
          "name": "name",
          "type": "string"
        },
        {
          "internalType": "string",
          "name": "imageURI",
          "type": "string"
        },
        {
          "internalType": "uint256",
          "name": "hp",
          "type": "uint256"
        },
        {
          "internalType": "uint256",
          "name": "maxHp",
          "type": "uint256"
        },
        {
          "internalType": "uint256",
          "name": "attackDamage",
          "type": "uint256"
        },
        {
          "internalType": "uint256",
          "name": "shield",
          "type": "uint256"
        }
      ],
      "stateMutability": "view",
      "type": "function"
    },
    {
      "inputs": [
        {
          "internalType": "address",
          "name": "",
          "type": "address"
        },
        {
          "internalType": "uint256",
          "name": "",
          "type": "uint256"
        }
      ],
      "name": "nftHolders",
      "outputs": [
        {
          "internalType": "uint256",
          "name": "",
          "type": "uint256"
        }
      ],
      "stateMutability": "view",
      "type": "function"
    },
    {
      "inputs": [
        {
          "internalType": "uint256",
          "name": "tokenId",
          "type": "uint256"
        }
      ],
      "name": "ownerOf",
      "outputs": [
        {
          "internalType": "address",
          "name": "",
          "type": "address"
        }
      ],
      "stateMutability": "view",
      "type": "function"
    },
    {
      "inputs": [
        {
          "internalType": "address",
          "name": "from",
          "type": "address"
        },
        {
          "internalType": "address",
          "name": "to",
          "type": "address"
        },
        {
          "internalType": "uint256",
          "name": "tokenId",
          "type": "uint256"
        }
      ],
      "name": "safeTransferFrom",
      "outputs": [],
      "stateMutability": "nonpayable",
      "type": "function"
    },
    {
      "inputs": [
        {
          "internalType": "address",
          "name": "from",
          "type": "address"
        },
        {
          "internalType": "address",
          "name": "to",
          "type": "address"
        },
        {
          "internalType": "uint256",
          "name": "tokenId",
          "type": "uint256"
        },
        {
          "internalType": "bytes",
          "name": "_data",
          "type": "bytes"
        }
      ],
      "name": "safeTransferFrom",
      "outputs": [],
      "stateMutability": "nonpayable",
      "type": "function"
    },
    {
      "inputs": [
        {
          "internalType": "address",
          "name": "operator",
          "type": "address"
        },
        {
          "internalType": "bool",
          "name": "approved",
          "type": "bool"
        }
      ],
      "name": "setApprovalForAll",
      "outputs": [],
      "stateMutability": "nonpayable",
      "type": "function"
    },
    {
      "inputs": [
        {
          "internalType": "bytes4",
          "name": "interfaceId",
          "type": "bytes4"
        }
      ],
      "name": "supportsInterface",
      "outputs": [
        {
          "internalType": "bool",
          "name": "",
          "type": "bool"
        }
      ],
      "stateMutability": "view",
      "type": "function"
    },
    {
      "inputs": [],
      "name": "symbol",
      "outputs": [
        {
          "internalType": "string",
          "name": "",
          "type": "string"
        }
      ],
      "stateMutability": "view",
      "type": "function"
    },
    {
      "inputs": [
        {
          "internalType": "uint256",
          "name": "_tokenId",
          "type": "uint256"
        }
      ],
      "name": "tokenURI",
      "outputs": [
        {
          "internalType": "string",
          "name": "",
          "type": "string"
        }
      ],
      "stateMutability": "view",
      "type": "function"
    },
    {
      "inputs": [
        {
          "internalType": "address",
          "name": "from",
          "type": "address"
        },
        {
          "internalType": "address",
          "name": "to",
          "type": "address"
        },
        {
          "internalType": "uint256",
          "name": "tokenId",
          "type": "uint256"
        }
      ],
      "name": "transferFrom",
      "outputs": [],
      "stateMutability": "nonpayable",
      "type": "function"
    }
  ],
  "bytecode": "0x60806040523480156200001157600080fd5b50604051620061f1380380620061f1833981810160405281019062000037919062000ab6565b6040518060400160405280600c81526020017f42727574652042656173747300000000000000000000000000000000000000008152506040518060400160405280600281526020017f42420000000000000000000000000000000000000000000000000000000000008152508160009080519060200190620000bb92919062000849565b508060019080519060200190620000d492919062000849565b5050506040518060a001604052808a815260200189815260200188815260200188815260200187815250600a60008201518160000190805190602001906200011e92919062000849565b5060208201518160010190805190602001906200013d92919062000849565b50604082015181600201556060820151816003015560808201518160040155905050620002c06040518060600160405280602a8152602001620061c7602a9139600a60000180546200018f9062000e68565b80601f0160208091040260200160405190810160405280929190818152602001828054620001bd9062000e68565b80156200020e5780601f10620001e2576101008083540402835291602001916200020e565b820191906000526020600020905b815481529060010190602001808311620001f057829003601f168201915b5050505050600a60020154600a60010180546200022b9062000e68565b80601f0160208091040260200160405190810160405280929190818152602001828054620002599062000e68565b8015620002aa5780601f106200027e57610100808354040283529160200191620002aa565b820191906000526020600020905b8154815290600101906020018083116200028c57829003601f168201915b50505050506200075e60201b620021c71760201c565b60005b8551811015620007375760076040518060e001604052808381526020018884815181106200031a577f4e487b7100000000000000000000000000000000000000000000000000000000600052603260045260246000fd5b6020026020010151815260200187848151811062000361577f4e487b7100000000000000000000000000000000000000000000000000000000600052603260045260246000fd5b60200260200101518152602001868481518110620003a8577f4e487b7100000000000000000000000000000000000000000000000000000000600052603260045260246000fd5b60200260200101518152602001868481518110620003ef577f4e487b7100000000000000000000000000000000000000000000000000000000600052603260045260246000fd5b6020026020010151815260200185848151811062000436577f4e487b7100000000000000000000000000000000000000000000000000000000600052603260045260246000fd5b602002602001015181526020018484815181106200047d577f4e487b7100000000000000000000000000000000000000000000000000000000600052603260045260246000fd5b60200260200101518152509080600181540180825580915050600190039060005260206000209060070201600090919091909150600082015181600001556020820151816001019080519060200190620004d992919062000849565b506040820151816002019080519060200190620004f892919062000849565b50606082015181600301556080820151816004015560a0820151816005015560c08201518160060155505060006007828154811062000560577f4e487b7100000000000000000000000000000000000000000000000000000000600052603260045260246000fd5b90600052602060002090600702016040518060e001604052908160008201548152602001600182018054620005959062000e68565b80601f0160208091040260200160405190810160405280929190818152602001828054620005c39062000e68565b8015620006145780601f10620005e85761010080835404028352916020019162000614565b820191906000526020600020905b815481529060010190602001808311620005f657829003601f168201915b505050505081526020016002820180546200062f9062000e68565b80601f01602080910402602001604051908101604052809291908181526020018280546200065d9062000e68565b8015620006ae5780601f106200068257610100808354040283529160200191620006ae565b820191906000526020600020905b8154815290600101906020018083116200069057829003601f168201915b5050505050815260200160038201548152602001600482015481526020016005820154815260200160068201548152505090506200071f604051806060016040528060258152602001620061a2602591398260200151836060015184604001516200075e60201b620021c71760201c565b506001816200072f919062000dcb565b9050620002c3565b506200074f60066200080a60201b620022691760201c565b50505050505050505062000f8c565b62000804848484846040516024016200077b949392919062000c90565b6040516020818303038152906040527f8d142cdd000000000000000000000000000000000000000000000000000000007bffffffffffffffffffffffffffffffffffffffffffffffffffffffff19166020820180517bffffffffffffffffffffffffffffffffffffffffffffffffffffffff83818316178352505050506200082060201b60201c565b50505050565b6001816000016000828254019250508190555050565b60008151905060006a636f6e736f6c652e6c6f679050602083016000808483855afa5050505050565b828054620008579062000e68565b90600052602060002090601f0160209004810192826200087b5760008555620008c7565b82601f106200089657805160ff1916838001178555620008c7565b82800160010185558215620008c7579182015b82811115620008c6578251825591602001919060010190620008a9565b5b509050620008d69190620008da565b5090565b5b80821115620008f5576000816000905550600101620008db565b5090565b6000620009106200090a8462000d1b565b62000cf2565b9050808382526020820190508260005b8581101562000954578151850162000939888262000a72565b84526020840193506020830192505060018101905062000920565b5050509392505050565b6000620009756200096f8462000d4a565b62000cf2565b905080838252602082019050828560208602820111156200099557600080fd5b60005b85811015620009c95781620009ae888262000a9f565b84526020840193506020830192505060018101905062000998565b5050509392505050565b6000620009ea620009e48462000d79565b62000cf2565b90508281526020810184848401111562000a0357600080fd5b62000a1084828562000e32565b509392505050565b600082601f83011262000a2a57600080fd5b815162000a3c848260208601620008f9565b91505092915050565b600082601f83011262000a5757600080fd5b815162000a698482602086016200095e565b91505092915050565b600082601f83011262000a8457600080fd5b815162000a96848260208601620009d3565b91505092915050565b60008151905062000ab08162000f72565b92915050565b60008060008060008060008060006101208a8c03121562000ad657600080fd5b60008a015167ffffffffffffffff81111562000af157600080fd5b62000aff8c828d0162000a72565b99505060208a015167ffffffffffffffff81111562000b1d57600080fd5b62000b2b8c828d0162000a72565b985050604062000b3e8c828d0162000a9f565b975050606062000b518c828d0162000a9f565b96505060808a015167ffffffffffffffff81111562000b6f57600080fd5b62000b7d8c828d0162000a18565b95505060a08a015167ffffffffffffffff81111562000b9b57600080fd5b62000ba98c828d0162000a18565b94505060c08a015167ffffffffffffffff81111562000bc757600080fd5b62000bd58c828d0162000a45565b93505060e08a015167ffffffffffffffff81111562000bf357600080fd5b62000c018c828d0162000a45565b9250506101008a015167ffffffffffffffff81111562000c2057600080fd5b62000c2e8c828d0162000a45565b9150509295985092959850929598565b600062000c4b8262000daf565b62000c57818562000dba565b935062000c6981856020860162000e32565b62000c748162000f61565b840191505092915050565b62000c8a8162000e28565b82525050565b6000608082019050818103600083015262000cac818762000c3e565b9050818103602083015262000cc2818662000c3e565b905062000cd3604083018562000c7f565b818103606083015262000ce7818462000c3e565b905095945050505050565b600062000cfe62000d11565b905062000d0c828262000e9e565b919050565b6000604051905090565b600067ffffffffffffffff82111562000d395762000d3862000f32565b5b602082029050602081019050919050565b600067ffffffffffffffff82111562000d685762000d6762000f32565b5b602082029050602081019050919050565b600067ffffffffffffffff82111562000d975762000d9662000f32565b5b62000da28262000f61565b9050602081019050919050565b600081519050919050565b600082825260208201905092915050565b600062000dd88262000e28565b915062000de58362000e28565b9250827fffffffffffffffffffffffffffffffffffffffffffffffffffffffffffffffff0382111562000e1d5762000e1c62000ed4565b5b828201905092915050565b6000819050919050565b60005b8381101562000e5257808201518184015260208101905062000e35565b8381111562000e62576000848401525b50505050565b6000600282049050600182168062000e8157607f821691505b6020821081141562000e985762000e9762000f03565b5b50919050565b62000ea98262000f61565b810181811067ffffffffffffffff8211171562000ecb5762000eca62000f32565b5b80604052505050565b7f4e487b7100000000000000000000000000000000000000000000000000000000600052601160045260246000fd5b7f4e487b7100000000000000000000000000000000000000000000000000000000600052602260045260246000fd5b7f4e487b7100000000000000000000000000000000000000000000000000000000600052604160045260246000fd5b6000601f19601f8301169050919050565b62000f7d8162000e28565b811462000f8957600080fd5b50565b6152068062000f9c6000396000f3fe608060405234801561001057600080fd5b50600436106101425760003560e01c806395d89b41116100b8578063b953084e1161007c578063b953084e1461037f578063c87b56dd1461039d578063c8cf27f4146103cd578063d4f24c5b146103eb578063e985e9c5146103f5578063f8b81ef71461042557610142565b806395d89b41146102d157806398da4c95146102ef578063a22cb46514610325578063a9c3267914610341578063b88d4fde1461036357610142565b806323b872dd1161010a57806323b872dd146101ff57806342842e0e1461021b5780636352211e1461023757806370a0823114610267578063775bb50e1461029757806390a7b1e2146102c757610142565b806301ffc9a7146101475780630665f9611461017757806306fdde0314610195578063081812fc146101b3578063095ea7b3146101e3575b600080fd5b610161600480360381019061015c919061377f565b610441565b60405161016e919061402d565b60405180910390f35b61017f610523565b60405161018c9190614469565b60405180910390f35b61019d61067f565b6040516101aa9190614048565b60405180910390f35b6101cd60048036038101906101c891906137d1565b610711565b6040516101da9190613f6d565b60405180910390f35b6101fd60048036038101906101f89190613743565b610796565b005b6102196004803603810190610214919061363d565b6108ae565b005b6102356004803603810190610230919061363d565b61090e565b005b610251600480360381019061024c91906137d1565b61092e565b60405161025e9190613f6d565b60405180910390f35b610281600480360381019061027c91906135d8565b6109e0565b60405161028e91906144ad565b60405180910390f35b6102b160048036038101906102ac9190613743565b610a98565b6040516102be91906144ad565b60405180910390f35b6102cf610ac9565b005b6102d9610ec1565b6040516102e69190614048565b60405180910390f35b610309600480360381019061030491906137d1565b610f53565b60405161031c97969594939291906144c8565b60405180910390f35b61033f600480360381019061033a9190613707565b6110a5565b005b6103496110bb565b60405161035a95949392919061414e565b60405180910390f35b61037d6004803603810190610378919061368c565b6111ef565b005b610387611251565b604051610394919061400b565b60405180910390f35b6103b760048036038101906103b291906137d1565b611406565b6040516103c49190614048565b60405180910390f35b6103d561163d565b6040516103e2919061448b565b60405180910390f35b6103f36118bb565b005b61040f600480360381019061040a9190613601565b611cc2565b60405161041c919061402d565b60405180910390f35b61043f600480360381019061043a91906137d1565b611d56565b005b60007f80ac58cd000000000000000000000000000000000000000000000000000000007bffffffffffffffffffffffffffffffffffffffffffffffffffffffff1916827bffffffffffffffffffffffffffffffffffffffffffffffffffffffff1916148061050c57507f5b5e139f000000000000000000000000000000000000000000000000000000007bffffffffffffffffffffffffffffffffffffffffffffffffffffffff1916827bffffffffffffffffffffffffffffffffffffffffffffffffffffffff1916145b8061051c575061051b8261227f565b5b9050919050565b61052b6133f8565b600a6040518060a00160405290816000820180546105489061481c565b80601f01602080910402602001604051908101604052809291908181526020018280546105749061481c565b80156105c15780601f10610596576101008083540402835291602001916105c1565b820191906000526020600020905b8154815290600101906020018083116105a457829003601f168201915b505050505081526020016001820180546105da9061481c565b80601f01602080910402602001604051908101604052809291908181526020018280546106069061481c565b80156106535780601f1061062857610100808354040283529160200191610653565b820191906000526020600020905b81548152906001019060200180831161063657829003601f168201915b505050505081526020016002820154815260200160038201548152602001600482015481525050905090565b60606000805461068e9061481c565b80601f01602080910402602001604051908101604052809291908181526020018280546106ba9061481c565b80156107075780601f106106dc57610100808354040283529160200191610707565b820191906000526020600020905b8154815290600101906020018083116106ea57829003601f168201915b5050505050905090565b600061071c826122e9565b61075b576040517f08c379a000000000000000000000000000000000000000000000000000000000815260040161075290614409565b60405180910390fd5b6004600083815260200190815260200160002060009054906101000a900473ffffffffffffffffffffffffffffffffffffffff169050919050565b60006107a18261092e565b90508073ffffffffffffffffffffffffffffffffffffffff168373ffffffffffffffffffffffffffffffffffffffff161415610812576040517f08c379a000000000000000000000000000000000000000000000000000000000815260040161080990614429565b60405180910390fd5b8073ffffffffffffffffffffffffffffffffffffffff16610831612355565b73ffffffffffffffffffffffffffffffffffffffff161480610860575061085f8161085a612355565b611cc2565b5b61089f576040517f08c379a000000000000000000000000000000000000000000000000000000000815260040161089690614369565b60405180910390fd5b6108a9838361235d565b505050565b6108bf6108b9612355565b82612416565b6108fe576040517f08c379a00000000000000000000000000000000000000000000000000000000081526004016108f590614449565b60405180910390fd5b6109098383836124f4565b505050565b610929838383604051806020016040528060008152506111ef565b505050565b6000806002600084815260200190815260200160002060009054906101000a900473ffffffffffffffffffffffffffffffffffffffff169050600073ffffffffffffffffffffffffffffffffffffffff168173ffffffffffffffffffffffffffffffffffffffff1614156109d7576040517f08c379a00000000000000000000000000000000000000000000000000000000081526004016109ce906143a9565b60405180910390fd5b80915050919050565b60008073ffffffffffffffffffffffffffffffffffffffff168273ffffffffffffffffffffffffffffffffffffffff161415610a51576040517f08c379a0000000000000000000000000000000000000000000000000000000008152600401610a4890614389565b60405180910390fd5b600360008373ffffffffffffffffffffffffffffffffffffffff1673ffffffffffffffffffffffffffffffffffffffff168152602001908152602001600020549050919050565b600f6020528160005260406000208181548110610ab457600080fd5b90600052602060002001600091509150505481565b6000600f60003373ffffffffffffffffffffffffffffffffffffffff1673ffffffffffffffffffffffffffffffffffffffff1681526020019081526020016000206001600f60003373ffffffffffffffffffffffffffffffffffffffff1673ffffffffffffffffffffffffffffffffffffffff16815260200190815260200160002080549050610b599190614732565b81548110610b90577f4e487b7100000000000000000000000000000000000000000000000000000000600052603260045260246000fd5b906000526020600020015490506000600960008381526020019081526020016000209050610c6260405180606001604052806027815260200161517c60279139826001018054610bdf9061481c565b80601f0160208091040260200160405190810160405280929190818152602001828054610c0b9061481c565b8015610c585780601f10610c2d57610100808354040283529160200191610c58565b820191906000526020600020905b815481529060010190602001808311610c3b57829003601f168201915b505050505061275b565b610c9260405180606001604052806022815260200161515a602291398260030154836005015484600601546127f7565b610d6a6040518060400160405280601b81526020017f426f73732025732068617320257320485020616e642025732041440000000000815250600a6000018054610cdb9061481c565b80601f0160208091040260200160405190810160405280929190818152602001828054610d079061481c565b8015610d545780601f10610d2957610100808354040283529160200191610d54565b820191906000526020600020905b815481529060010190602001808311610d3757829003601f168201915b5050505050600a60020154600a60040154612899565b6000816003015411610db1576040517f08c379a0000000000000000000000000000000000000000000000000000000008152600401610da8906143c9565b60405180910390fd5b6000600a6002015411610df9576040517f08c379a0000000000000000000000000000000000000000000000000000000008152600401610df0906142c9565b60405180910390fd5b600a6004015481600601548260030154610e139190614651565b1015610e285760008160030181905550610e55565b600a6004015481600601548260030154610e429190614651565b610e4c9190614732565b81600301819055505b610e7b60405180606001604052806028815260200161513260289139826003015461293b565b7f4f51627b06f649eb620fc88334b4074598cd524862edfca43ded8481a4eaf652600a600201548260030154604051610eb5929190614545565b60405180910390a15050565b606060018054610ed09061481c565b80601f0160208091040260200160405190810160405280929190818152602001828054610efc9061481c565b8015610f495780601f10610f1e57610100808354040283529160200191610f49565b820191906000526020600020905b815481529060010190602001808311610f2c57829003601f168201915b5050505050905090565b6009602052806000526040600020600091509050806000015490806001018054610f7c9061481c565b80601f0160208091040260200160405190810160405280929190818152602001828054610fa89061481c565b8015610ff55780601f10610fca57610100808354040283529160200191610ff5565b820191906000526020600020905b815481529060010190602001808311610fd857829003601f168201915b50505050509080600201805461100a9061481c565b80601f01602080910402602001604051908101604052809291908181526020018280546110369061481c565b80156110835780601f1061105857610100808354040283529160200191611083565b820191906000526020600020905b81548152906001019060200180831161106657829003601f168201915b5050505050908060030154908060040154908060050154908060060154905087565b6110b76110b0612355565b83836129d7565b5050565b600a8060000180546110cc9061481c565b80601f01602080910402602001604051908101604052809291908181526020018280546110f89061481c565b80156111455780601f1061111a57610100808354040283529160200191611145565b820191906000526020600020905b81548152906001019060200180831161112857829003601f168201915b50505050509080600101805461115a9061481c565b80601f01602080910402602001604051908101604052809291908181526020018280546111869061481c565b80156111d35780601f106111a8576101008083540402835291602001916111d3565b820191906000526020600020905b8154815290600101906020018083116111b657829003601f168201915b5050505050908060020154908060030154908060040154905085565b6112006111fa612355565b83612416565b61123f576040517f08c379a000000000000000000000000000000000000000000000000000000000815260040161123690614449565b60405180910390fd5b61124b84848484612b44565b50505050565b60606007805480602002602001604051908101604052809291908181526020016000905b828210156113fd57838290600052602060002090600702016040518060e0016040529081600082015481526020016001820180546112b29061481c565b80601f01602080910402602001604051908101604052809291908181526020018280546112de9061481c565b801561132b5780601f106113005761010080835404028352916020019161132b565b820191906000526020600020905b81548152906001019060200180831161130e57829003601f168201915b505050505081526020016002820180546113449061481c565b80601f01602080910402602001604051908101604052809291908181526020018280546113709061481c565b80156113bd5780601f10611392576101008083540402835291602001916113bd565b820191906000526020600020905b8154815290600101906020018083116113a057829003601f168201915b5050505050815260200160038201548152602001600482015481526020016005820154815260200160068201548152505081526020019060010190611275565b50505050905090565b60606000600960008481526020019081526020016000206040518060e0016040529081600082015481526020016001820180546114429061481c565b80601f016020809104026020016040519081016040528092919081815260200182805461146e9061481c565b80156114bb5780601f10611490576101008083540402835291602001916114bb565b820191906000526020600020905b81548152906001019060200180831161149e57829003601f168201915b505050505081526020016002820180546114d49061481c565b80601f01602080910402602001604051908101604052809291908181526020018280546115009061481c565b801561154d5780601f106115225761010080835404028352916020019161154d565b820191906000526020600020905b81548152906001019060200180831161153057829003601f168201915b505050505081526020016003820154815260200160048201548152602001600582015481526020016006820154815250509050600061158f8260600151612ba0565b905060006115a08360800151612ba0565b905060006115b18460a00151612ba0565b905060006115c28560c00151612ba0565b9050600061160886602001516115d78a612ba0565b88604001518887876040516020016115f496959493929190613ea6565b604051602081830303815290604052612d4d565b905060008160405160200161161d9190613f4b565b604051602081830303815290604052905080975050505050505050919050565b611645613427565b6000600f60003373ffffffffffffffffffffffffffffffffffffffff1673ffffffffffffffffffffffffffffffffffffffff1681526020019081526020016000208054806020026020016040519081016040528092919081815260200182805480156116d057602002820191906000526020600020905b8154815260200190600101908083116116bc575b505050505090506000815111156118aa576009600082600184516116f49190614732565b8151811061172b577f4e487b7100000000000000000000000000000000000000000000000000000000600052603260045260246000fd5b602002602001015181526020019081526020016000206040518060e0016040529081600082015481526020016001820180546117669061481c565b80601f01602080910402602001604051908101604052809291908181526020018280546117929061481c565b80156117df5780601f106117b4576101008083540402835291602001916117df565b820191906000526020600020905b8154815290600101906020018083116117c257829003601f168201915b505050505081526020016002820180546117f89061481c565b80601f01602080910402602001604051908101604052809291908181526020018280546118249061481c565b80156118715780601f1061184657610100808354040283529160200191611871565b820191906000526020600020905b81548152906001019060200180831161185457829003601f168201915b505050505081526020016003820154815260200160048201548152602001600582015481526020016006820154815250509150506118b8565b6118b2613427565b80925050505b90565b6000600f60003373ffffffffffffffffffffffffffffffffffffffff1673ffffffffffffffffffffffffffffffffffffffff1681526020019081526020016000206001600f60003373ffffffffffffffffffffffffffffffffffffffff1673ffffffffffffffffffffffffffffffffffffffff1681526020019081526020016000208054905061194b9190614732565b81548110611982577f4e487b7100000000000000000000000000000000000000000000000000000000600052603260045260246000fd5b9060005260206000200154905060006009600083815260200190815260200160002090506119d660405180606001604052806022815260200161515a602291398260030154836005015484600601546127f7565b611aae6040518060400160405280601b81526020017f426f73732025732068617320257320485020616e642025732041440000000000815250600a6000018054611a1f9061481c565b80601f0160208091040260200160405190810160405280929190818152602001828054611a4b9061481c565b8015611a985780601f10611a6d57610100808354040283529160200191611a98565b820191906000526020600020905b815481529060010190602001808311611a7b57829003601f168201915b5050505050600a60020154600a60040154612899565b611b866040518060400160405280601b81526020017f426f73732025732068617320257320485020616e642025732041440000000000815250600a6000018054611af79061481c565b80601f0160208091040260200160405190810160405280929190818152602001828054611b239061481c565b8015611b705780601f10611b4557610100808354040283529160200191611b70565b820191906000526020600020905b815481529060010190602001808311611b5357829003601f168201915b5050505050600a60020154600a60040154612899565b6000816003015411611bcd576040517f08c379a0000000000000000000000000000000000000000000000000000000008152600401611bc4906143c9565b60405180910390fd5b6000600a6002015411611c15576040517f08c379a0000000000000000000000000000000000000000000000000000000008152600401611c0c90614269565b60405180910390fd5b8060050154600a600201541015611c36576000600a60020181905550611c55565b8060050154600a60020154611c4b9190614732565b600a600201819055505b611c7c6040518060600160405280602581526020016150cd60259139600a6002015461293b565b7fb6f2a6f154d050dbdf681fee59096e5c7b34618bcab83b0612cb861fdc1a86dd600a600201548260030154604051611cb6929190614545565b60405180910390a15050565b6000600560008473ffffffffffffffffffffffffffffffffffffffff1673ffffffffffffffffffffffffffffffffffffffff16815260200190815260200160002060008373ffffffffffffffffffffffffffffffffffffffff1673ffffffffffffffffffffffffffffffffffffffff16815260200190815260200160002060009054906101000a900460ff16905092915050565b6000611d626006612f0b565b9050611d6e3382612f19565b6040518060e0016040528083815260200160078481548110611db9577f4e487b7100000000000000000000000000000000000000000000000000000000600052603260045260246000fd5b90600052602060002090600702016001018054611dd59061481c565b80601f0160208091040260200160405190810160405280929190818152602001828054611e019061481c565b8015611e4e5780601f10611e2357610100808354040283529160200191611e4e565b820191906000526020600020905b815481529060010190602001808311611e3157829003601f168201915b5050505050815260200160078481548110611e92577f4e487b7100000000000000000000000000000000000000000000000000000000600052603260045260246000fd5b90600052602060002090600702016002018054611eae9061481c565b80601f0160208091040260200160405190810160405280929190818152602001828054611eda9061481c565b8015611f275780601f10611efc57610100808354040283529160200191611f27565b820191906000526020600020905b815481529060010190602001808311611f0a57829003601f168201915b5050505050815260200160078481548110611f6b577f4e487b7100000000000000000000000000000000000000000000000000000000600052603260045260246000fd5b906000526020600020906007020160030154815260200160078481548110611fbc577f4e487b7100000000000000000000000000000000000000000000000000000000600052603260045260246000fd5b90600052602060002090600702016004015481526020016007848154811061200d577f4e487b7100000000000000000000000000000000000000000000000000000000600052603260045260246000fd5b90600052602060002090600702016005015481526020016007848154811061205e577f4e487b7100000000000000000000000000000000000000000000000000000000600052603260045260246000fd5b906000526020600020906007020160060154815250600960008381526020019081526020016000206000820151816000015560208201518160010190805190602001906120ac929190613464565b5060408201518160020190805190602001906120c9929190613464565b50606082015181600301556080820151816004015560a0820151816005015560c082015181600601559050506121186040518060600160405280602e81526020016151a3602e91398284612f37565b600f60003373ffffffffffffffffffffffffffffffffffffffff1673ffffffffffffffffffffffffffffffffffffffff1681526020019081526020016000208190806001815401808255809150506001900390600052602060002001600090919091909150556121886006612269565b7f4bc303fd457a97b4691b9af582ce71868a3d258638c8d4f8c60988a0f0bfb8cd3382846040516121bb93929190613fd4565b60405180910390a15050565b612263848484846040516024016121e194939291906140a1565b6040516020818303038152906040527f8d142cdd000000000000000000000000000000000000000000000000000000007bffffffffffffffffffffffffffffffffffffffffffffffffffffffff19166020820180517bffffffffffffffffffffffffffffffffffffffffffffffffffffffff8381831617835250505050612fd6565b50505050565b6001816000016000828254019250508190555050565b60007f01ffc9a7000000000000000000000000000000000000000000000000000000007bffffffffffffffffffffffffffffffffffffffffffffffffffffffff1916827bffffffffffffffffffffffffffffffffffffffffffffffffffffffff1916149050919050565b60008073ffffffffffffffffffffffffffffffffffffffff166002600084815260200190815260200160002060009054906101000a900473ffffffffffffffffffffffffffffffffffffffff1673ffffffffffffffffffffffffffffffffffffffff1614159050919050565b600033905090565b816004600083815260200190815260200160002060006101000a81548173ffffffffffffffffffffffffffffffffffffffff021916908373ffffffffffffffffffffffffffffffffffffffff160217905550808273ffffffffffffffffffffffffffffffffffffffff166123d08361092e565b73ffffffffffffffffffffffffffffffffffffffff167f8c5be1e5ebec7d5bd14f71427d1e84f3dd0314c0f7b2291e5b200ac8c7c3b92560405160405180910390a45050565b6000612421826122e9565b612460576040517f08c379a000000000000000000000000000000000000000000000000000000000815260040161245790614349565b60405180910390fd5b600061246b8361092e565b90508073ffffffffffffffffffffffffffffffffffffffff168473ffffffffffffffffffffffffffffffffffffffff1614806124ad57506124ac8185611cc2565b5b806124eb57508373ffffffffffffffffffffffffffffffffffffffff166124d384610711565b73ffffffffffffffffffffffffffffffffffffffff16145b91505092915050565b8273ffffffffffffffffffffffffffffffffffffffff166125148261092e565b73ffffffffffffffffffffffffffffffffffffffff161461256a576040517f08c379a0000000000000000000000000000000000000000000000000000000008152600401612561906142a9565b60405180910390fd5b600073ffffffffffffffffffffffffffffffffffffffff168273ffffffffffffffffffffffffffffffffffffffff1614156125da576040517f08c379a00000000000000000000000000000000000000000000000000000000081526004016125d190614309565b60405180910390fd5b6125e5838383612fff565b6125f060008261235d565b6001600360008573ffffffffffffffffffffffffffffffffffffffff1673ffffffffffffffffffffffffffffffffffffffff16815260200190815260200160002060008282546126409190614732565b925050819055506001600360008473ffffffffffffffffffffffffffffffffffffffff1673ffffffffffffffffffffffffffffffffffffffff16815260200190815260200160002060008282546126979190614651565b92505081905550816002600083815260200190815260200160002060006101000a81548173ffffffffffffffffffffffffffffffffffffffff021916908373ffffffffffffffffffffffffffffffffffffffff160217905550808273ffffffffffffffffffffffffffffffffffffffff168473ffffffffffffffffffffffffffffffffffffffff167fddf252ad1be2c89b69c2b068fc378daa952ba7f163c4a11628f55a4df523b3ef60405160405180910390a4612756838383613004565b505050565b6127f3828260405160240161277192919061406a565b6040516020818303038152906040527f4b5c4277000000000000000000000000000000000000000000000000000000007bffffffffffffffffffffffffffffffffffffffffffffffffffffffff19166020820180517bffffffffffffffffffffffffffffffffffffffffffffffffffffffff8381831617835250505050612fd6565b5050565b61289384848484604051602401612811949392919061421d565b6040516020818303038152906040527f08ee5666000000000000000000000000000000000000000000000000000000007bffffffffffffffffffffffffffffffffffffffffffffffffffffffff19166020820180517bffffffffffffffffffffffffffffffffffffffffffffffffffffffff8381831617835250505050612fd6565b50505050565b612935848484846040516024016128b394939291906140fb565b6040516020818303038152906040527fd5cf17d0000000000000000000000000000000000000000000000000000000007bffffffffffffffffffffffffffffffffffffffffffffffffffffffff19166020820180517bffffffffffffffffffffffffffffffffffffffffffffffffffffffff8381831617835250505050612fd6565b50505050565b6129d382826040516024016129519291906141af565b6040516020818303038152906040527f9710a9d0000000000000000000000000000000000000000000000000000000007bffffffffffffffffffffffffffffffffffffffffffffffffffffffff19166020820180517bffffffffffffffffffffffffffffffffffffffffffffffffffffffff8381831617835250505050612fd6565b5050565b8173ffffffffffffffffffffffffffffffffffffffff168373ffffffffffffffffffffffffffffffffffffffff161415612a46576040517f08c379a0000000000000000000000000000000000000000000000000000000008152600401612a3d90614329565b60405180910390fd5b80600560008573ffffffffffffffffffffffffffffffffffffffff1673ffffffffffffffffffffffffffffffffffffffff16815260200190815260200160002060008473ffffffffffffffffffffffffffffffffffffffff1673ffffffffffffffffffffffffffffffffffffffff16815260200190815260200160002060006101000a81548160ff0219169083151502179055508173ffffffffffffffffffffffffffffffffffffffff168373ffffffffffffffffffffffffffffffffffffffff167f17307eab39ab6107e8899845ad3d59bd9653f200f220920489ca2b5937696c3183604051612b37919061402d565b60405180910390a3505050565b612b4f8484846124f4565b612b5b84848484613009565b612b9a576040517f08c379a0000000000000000000000000000000000000000000000000000000008152600401612b9190614289565b60405180910390fd5b50505050565b60606000821415612be8576040518060400160405280600181526020017f30000000000000000000000000000000000000000000000000000000000000008152509050612d48565b600082905060005b60008214612c1a578080612c039061487f565b915050600a82612c1391906146a7565b9150612bf0565b60008167ffffffffffffffff811115612c5c577f4e487b7100000000000000000000000000000000000000000000000000000000600052604160045260246000fd5b6040519080825280601f01601f191660200182016040528015612c8e5781602001600182028036833780820191505090505b5090505b60008514612d4157600182612ca79190614732565b9150600a85612cb691906148c8565b6030612cc29190614651565b60f81b818381518110612cfe577f4e487b7100000000000000000000000000000000000000000000000000000000600052603260045260246000fd5b60200101907effffffffffffffffffffffffffffffffffffffffffffffffffffffffffffff1916908160001a905350600a85612d3a91906146a7565b9450612c92565b8093505050505b919050565b60606000825190506000811415612d765760405180602001604052806000815250915050612f06565b60006003600283612d879190614651565b612d9191906146a7565b6004612d9d91906146d8565b90506000602082612dae9190614651565b67ffffffffffffffff811115612ded577f4e487b7100000000000000000000000000000000000000000000000000000000600052604160045260246000fd5b6040519080825280601f01601f191660200182016040528015612e1f5781602001600182028036833780820191505090505b50905060006040518060600160405280604081526020016150f2604091399050600181016020830160005b86811015612ec35760038101905062ffffff818a015116603f8160121c168401518060081b905060ff603f83600c1c1686015116810190508060081b905060ff603f8360061c1686015116810190508060081b905060ff603f831686015116810190508060e01b90508084526004840193505050612e4a565b506003860660018114612edd5760028114612eed57612ef8565b613d3d60f01b6002830352612ef8565b603d60f81b60018303525b508484525050819450505050505b919050565b600081600001549050919050565b612f338282604051806020016040528060008152506131a0565b5050565b612fd1838383604051602401612f4f939291906141df565b6040516020818303038152906040527f969cdd03000000000000000000000000000000000000000000000000000000007bffffffffffffffffffffffffffffffffffffffffffffffffffffffff19166020820180517bffffffffffffffffffffffffffffffffffffffffffffffffffffffff8381831617835250505050612fd6565b505050565b60008151905060006a636f6e736f6c652e6c6f679050602083016000808483855afa5050505050565b505050565b505050565b600061302a8473ffffffffffffffffffffffffffffffffffffffff166131fb565b15613193578373ffffffffffffffffffffffffffffffffffffffff1663150b7a02613053612355565b8786866040518563ffffffff1660e01b81526004016130759493929190613f88565b602060405180830381600087803b15801561308f57600080fd5b505af19250505080156130c057506040513d601f19601f820116820180604052508101906130bd91906137a8565b60015b613143573d80600081146130f0576040519150601f19603f3d011682016040523d82523d6000602084013e6130f5565b606091505b5060008151141561313b576040517f08c379a000000000000000000000000000000000000000000000000000000000815260040161313290614289565b60405180910390fd5b805181602001fd5b63150b7a0260e01b7bffffffffffffffffffffffffffffffffffffffffffffffffffffffff1916817bffffffffffffffffffffffffffffffffffffffffffffffffffffffff191614915050613198565b600190505b949350505050565b6131aa838361321e565b6131b76000848484613009565b6131f6576040517f08c379a00000000000000000000000000000000000000000000000000000000081526004016131ed90614289565b60405180910390fd5b505050565b6000808273ffffffffffffffffffffffffffffffffffffffff163b119050919050565b600073ffffffffffffffffffffffffffffffffffffffff168273ffffffffffffffffffffffffffffffffffffffff16141561328e576040517f08c379a0000000000000000000000000000000000000000000000000000000008152600401613285906143e9565b60405180910390fd5b613297816122e9565b156132d7576040517f08c379a00000000000000000000000000000000000000000000000000000000081526004016132ce906142e9565b60405180910390fd5b6132e360008383612fff565b6001600360008473ffffffffffffffffffffffffffffffffffffffff1673ffffffffffffffffffffffffffffffffffffffff16815260200190815260200160002060008282546133339190614651565b92505081905550816002600083815260200190815260200160002060006101000a81548173ffffffffffffffffffffffffffffffffffffffff021916908373ffffffffffffffffffffffffffffffffffffffff160217905550808273ffffffffffffffffffffffffffffffffffffffff16600073ffffffffffffffffffffffffffffffffffffffff167fddf252ad1be2c89b69c2b068fc378daa952ba7f163c4a11628f55a4df523b3ef60405160405180910390a46133f460008383613004565b5050565b6040518060a0016040528060608152602001606081526020016000815260200160008152602001600081525090565b6040518060e00160405280600081526020016060815260200160608152602001600081526020016000815260200160008152602001600081525090565b8280546134709061481c565b90600052602060002090601f01602090048101928261349257600085556134d9565b82601f106134ab57805160ff19168380011785556134d9565b828001600101855582156134d9579182015b828111156134d85782518255916020019190600101906134bd565b5b5090506134e691906134ea565b5090565b5b808211156135035760008160009055506001016134eb565b5090565b600061351a61351584614593565b61456e565b90508281526020810184848401111561353257600080fd5b61353d8482856147da565b509392505050565b60008135905061355481615070565b92915050565b60008135905061356981615087565b92915050565b60008135905061357e8161509e565b92915050565b6000815190506135938161509e565b92915050565b600082601f8301126135aa57600080fd5b81356135ba848260208601613507565b91505092915050565b6000813590506135d2816150b5565b92915050565b6000602082840312156135ea57600080fd5b60006135f884828501613545565b91505092915050565b6000806040838503121561361457600080fd5b600061362285828601613545565b925050602061363385828601613545565b9150509250929050565b60008060006060848603121561365257600080fd5b600061366086828701613545565b935050602061367186828701613545565b9250506040613682868287016135c3565b9150509250925092565b600080600080608085870312156136a257600080fd5b60006136b087828801613545565b94505060206136c187828801613545565b93505060406136d2878288016135c3565b925050606085013567ffffffffffffffff8111156136ef57600080fd5b6136fb87828801613599565b91505092959194509250565b6000806040838503121561371a57600080fd5b600061372885828601613545565b92505060206137398582860161355a565b9150509250929050565b6000806040838503121561375657600080fd5b600061376485828601613545565b9250506020613775858286016135c3565b9150509250929050565b60006020828403121561379157600080fd5b600061379f8482850161356f565b91505092915050565b6000602082840312156137ba57600080fd5b60006137c884828501613584565b91505092915050565b6000602082840312156137e357600080fd5b60006137f1848285016135c3565b91505092915050565b60006138068383613d42565b905092915050565b61381781614766565b82525050565b6000613828826145d4565b6138328185614602565b935083602082028501613844856145c4565b8060005b85811015613880578484038952815161386185826137fa565b945061386c836145f5565b925060208a01995050600181019050613848565b50829750879550505050505092915050565b61389b81614778565b82525050565b60006138ac826145df565b6138b68185614613565b93506138c68185602086016147e9565b6138cf816149b5565b840191505092915050565b60006138e5826145ea565b6138ef8185614624565b93506138ff8185602086016147e9565b613908816149b5565b840191505092915050565b600061391e826145ea565b6139288185614635565b93506139388185602086016147e9565b613941816149b5565b840191505092915050565b6000613957826145ea565b6139618185614646565b93506139718185602086016147e9565b80840191505092915050565b600061398a600b83614646565b9150613995826149c6565b600b82019050919050565b60006139ad602883614635565b91506139b8826149ef565b604082019050919050565b60006139d0603283614635565b91506139db82614a3e565b604082019050919050565b60006139f3606d83614646565b91506139fe82614a8d565b606d82019050919050565b6000613a16602583614635565b9150613a2182614b28565b604082019050919050565b6000613a39602883614635565b9150613a4482614b77565b604082019050919050565b6000613a5c601c83614635565b9150613a6782614bc6565b602082019050919050565b6000613a7f602483614635565b9150613a8a82614bef565b604082019050919050565b6000613aa2601983614635565b9150613aad82614c3e565b602082019050919050565b6000613ac5602c83614635565b9150613ad082614c67565b604082019050919050565b6000613ae8603883614635565b9150613af382614cb6565b604082019050919050565b6000613b0b602a83614635565b9150613b1682614d05565b604082019050919050565b6000613b2e602983614635565b9150613b3982614d54565b604082019050919050565b6000613b51602d83614635565b9150613b5c82614da3565b604082019050919050565b6000613b74602083614635565b9150613b7f82614df2565b602082019050919050565b6000613b97602c83614635565b9150613ba282614e1b565b604082019050919050565b6000613bba600a83614646565b9150613bc582614e6a565b600a82019050919050565b6000613bdd602183614635565b9150613be882614e93565b604082019050919050565b6000613c00601d83614646565b9150613c0b82614ee2565b601d82019050919050565b6000613c23603183614635565b9150613c2e82614f0b565b604082019050919050565b6000613c46601683614646565b9150613c5182614f5a565b601682019050919050565b6000613c69604083614646565b9150613c7482614f83565b604082019050919050565b6000613c8c603d83614646565b9150613c9782614fd2565b603d82019050919050565b6000613caf603883614646565b9150613cba82615021565b603882019050919050565b600060a0830160008301518482036000860152613ce282826138da565b91505060208301518482036020860152613cfc82826138da565b9150506040830151613d116040860182613e88565b506060830151613d246060860182613e88565b506080830151613d376080860182613e88565b508091505092915050565b600060e083016000830151613d5a6000860182613e88565b5060208301518482036020860152613d7282826138da565b91505060408301518482036040860152613d8c82826138da565b9150506060830151613da16060860182613e88565b506080830151613db46080860182613e88565b5060a0830151613dc760a0860182613e88565b5060c0830151613dda60c0860182613e88565b508091505092915050565b600060e083016000830151613dfd6000860182613e88565b5060208301518482036020860152613e1582826138da565b91505060408301518482036040860152613e2f82826138da565b9150506060830151613e446060860182613e88565b506080830151613e576080860182613e88565b5060a0830151613e6a60a0860182613e88565b5060c0830151613e7d60c0860182613e88565b508091505092915050565b613e91816147d0565b82525050565b613ea0816147d0565b82525050565b6000613eb182613bad565b9150613ebd828961394c565b9150613ec88261397d565b9150613ed4828861394c565b9150613edf826139e6565b9150613eeb828761394c565b9150613ef682613c7f565b9150613f02828661394c565b9150613f0d82613c5c565b9150613f19828561394c565b9150613f2482613ca2565b9150613f30828461394c565b9150613f3b82613c39565b9150819050979650505050505050565b6000613f5682613bf3565b9150613f62828461394c565b915081905092915050565b6000602082019050613f82600083018461380e565b92915050565b6000608082019050613f9d600083018761380e565b613faa602083018661380e565b613fb76040830185613e97565b8181036060830152613fc981846138a1565b905095945050505050565b6000606082019050613fe9600083018661380e565b613ff66020830185613e97565b6140036040830184613e97565b949350505050565b60006020820190508181036000830152614025818461381d565b905092915050565b60006020820190506140426000830184613892565b92915050565b600060208201905081810360008301526140628184613913565b905092915050565b600060408201905081810360008301526140848185613913565b905081810360208301526140988184613913565b90509392505050565b600060808201905081810360008301526140bb8187613913565b905081810360208301526140cf8186613913565b90506140de6040830185613e97565b81810360608301526140f08184613913565b905095945050505050565b600060808201905081810360008301526141158187613913565b905081810360208301526141298186613913565b90506141386040830185613e97565b6141456060830184613e97565b95945050505050565b600060a08201905081810360008301526141688188613913565b9050818103602083015261417c8187613913565b905061418b6040830186613e97565b6141986060830185613e97565b6141a56080830184613e97565b9695505050505050565b600060408201905081810360008301526141c98185613913565b90506141d86020830184613e97565b9392505050565b600060608201905081810360008301526141f98186613913565b90506142086020830185613e97565b6142156040830184613e97565b949350505050565b600060808201905081810360008301526142378187613913565b90506142466020830186613e97565b6142536040830185613e97565b6142606060830184613e97565b95945050505050565b60006020820190508181036000830152614282816139a0565b9050919050565b600060208201905081810360008301526142a2816139c3565b9050919050565b600060208201905081810360008301526142c281613a09565b9050919050565b600060208201905081810360008301526142e281613a2c565b9050919050565b6000602082019050818103600083015261430281613a4f565b9050919050565b6000602082019050818103600083015261432281613a72565b9050919050565b6000602082019050818103600083015261434281613a95565b9050919050565b6000602082019050818103600083015261436281613ab8565b9050919050565b6000602082019050818103600083015261438281613adb565b9050919050565b600060208201905081810360008301526143a281613afe565b9050919050565b600060208201905081810360008301526143c281613b21565b9050919050565b600060208201905081810360008301526143e281613b44565b9050919050565b6000602082019050818103600083015261440281613b67565b9050919050565b6000602082019050818103600083015261442281613b8a565b9050919050565b6000602082019050818103600083015261444281613bd0565b9050919050565b6000602082019050818103600083015261446281613c16565b9050919050565b600060208201905081810360008301526144838184613cc5565b905092915050565b600060208201905081810360008301526144a58184613de5565b905092915050565b60006020820190506144c26000830184613e97565b92915050565b600060e0820190506144dd600083018a613e97565b81810360208301526144ef8189613913565b905081810360408301526145038188613913565b90506145126060830187613e97565b61451f6080830186613e97565b61452c60a0830185613e97565b61453960c0830184613e97565b98975050505050505050565b600060408201905061455a6000830185613e97565b6145676020830184613e97565b9392505050565b6000614578614589565b9050614584828261484e565b919050565b6000604051905090565b600067ffffffffffffffff8211156145ae576145ad614986565b5b6145b7826149b5565b9050602081019050919050565b6000819050602082019050919050565b600081519050919050565b600081519050919050565b600081519050919050565b6000602082019050919050565b600082825260208201905092915050565b600082825260208201905092915050565b600082825260208201905092915050565b600082825260208201905092915050565b600081905092915050565b600061465c826147d0565b9150614667836147d0565b9250827fffffffffffffffffffffffffffffffffffffffffffffffffffffffffffffffff0382111561469c5761469b6148f9565b5b828201905092915050565b60006146b2826147d0565b91506146bd836147d0565b9250826146cd576146cc614928565b5b828204905092915050565b60006146e3826147d0565b91506146ee836147d0565b9250817fffffffffffffffffffffffffffffffffffffffffffffffffffffffffffffffff0483118215151615614727576147266148f9565b5b828202905092915050565b600061473d826147d0565b9150614748836147d0565b92508282101561475b5761475a6148f9565b5b828203905092915050565b6000614771826147b0565b9050919050565b60008115159050919050565b60007fffffffff0000000000000000000000000000000000000000000000000000000082169050919050565b600073ffffffffffffffffffffffffffffffffffffffff82169050919050565b6000819050919050565b82818337600083830152505050565b60005b838110156148075780820151818401526020810190506147ec565b83811115614816576000848401525b50505050565b6000600282049050600182168061483457607f821691505b6020821081141561484857614847614957565b5b50919050565b614857826149b5565b810181811067ffffffffffffffff8211171561487657614875614986565b5b80604052505050565b600061488a826147d0565b91507fffffffffffffffffffffffffffffffffffffffffffffffffffffffffffffffff8214156148bd576148bc6148f9565b5b600182019050919050565b60006148d3826147d0565b91506148de836147d0565b9250826148ee576148ed614928565b5b828206905092915050565b7f4e487b7100000000000000000000000000000000000000000000000000000000600052601160045260246000fd5b7f4e487b7100000000000000000000000000000000000000000000000000000000600052601260045260246000fd5b7f4e487b7100000000000000000000000000000000000000000000000000000000600052602260045260246000fd5b7f4e487b7100000000000000000000000000000000000000000000000000000000600052604160045260246000fd5b6000601f19601f8301169050919050565b7f202d2d204e465420233a20000000000000000000000000000000000000000000600082015250565b7f4572726f723a20426f7373206d757374206861766520485020746f206174746160008201527f636b20626f73732e000000000000000000000000000000000000000000000000602082015250565b7f4552433732313a207472616e7366657220746f206e6f6e20455243373231526560008201527f63656976657220696d706c656d656e7465720000000000000000000000000000602082015250565b7f222c20226465736372697074696f6e223a2022437269746963616c486974206960008201527f732061207475726e2d6261736564204e46542067616d6520776865726520796f60208201527f752074616b65207475726e7320746f2061747461636b2074686520626f73732e60408201527f222c2022696d616765223a202200000000000000000000000000000000000000606082015250565b7f4552433732313a207472616e736665722066726f6d20696e636f72726563742060008201527f6f776e6572000000000000000000000000000000000000000000000000000000602082015250565b7f4572726f723a20626f7373206d757374206861766520485020746f206174746160008201527f636b20626f73732e000000000000000000000000000000000000000000000000602082015250565b7f4552433732313a20746f6b656e20616c7265616479206d696e74656400000000600082015250565b7f4552433732313a207472616e7366657220746f20746865207a65726f2061646460008201527f7265737300000000000000000000000000000000000000000000000000000000602082015250565b7f4552433732313a20617070726f766520746f2063616c6c657200000000000000600082015250565b7f4552433732313a206f70657261746f7220717565727920666f72206e6f6e657860008201527f697374656e7420746f6b656e0000000000000000000000000000000000000000602082015250565b7f4552433732313a20617070726f76652063616c6c6572206973206e6f74206f7760008201527f6e6572206e6f7220617070726f76656420666f7220616c6c0000000000000000602082015250565b7f4552433732313a2062616c616e636520717565727920666f7220746865207a6560008201527f726f206164647265737300000000000000000000000000000000000000000000602082015250565b7f4552433732313a206f776e657220717565727920666f72206e6f6e657869737460008201527f656e7420746f6b656e0000000000000000000000000000000000000000000000602082015250565b7f4572726f723a20636861726163746572206d757374206861766520485020746f60008201527f2061747461636b20626f73732e00000000000000000000000000000000000000602082015250565b7f4552433732313a206d696e7420746f20746865207a65726f2061646472657373600082015250565b7f4552433732313a20617070726f76656420717565727920666f72206e6f6e657860008201527f697374656e7420746f6b656e0000000000000000000000000000000000000000602082015250565b7f7b226e616d65223a202200000000000000000000000000000000000000000000600082015250565b7f4552433732313a20617070726f76616c20746f2063757272656e74206f776e6560008201527f7200000000000000000000000000000000000000000000000000000000000000602082015250565b7f646174613a6170706c69636174696f6e2f6a736f6e3b6261736536342c000000600082015250565b7f4552433732313a207472616e736665722063616c6c6572206973206e6f74206f60008201527f776e6572206e6f7220617070726f766564000000000000000000000000000000602082015250565b7f2c20226d61785f76616c7565223a203130307d205d7d00000000000000000000600082015250565b7f2c20226d61785f76616c7565223a20333030207d2c207b202274726169745f7460008201527f797065223a202241747461636b2044616d616765222c202276616c7565223a20602082015250565b7f222c202261747472696275746573223a205b207b202274726169745f7479706560008201527f223a20224865616c746820506f696e7473222c202276616c7565223a20000000602082015250565b7f2c20226d61785f76616c7565223a203430307d2c207b202274726169745f747960008201527f7065223a2022536869656c64222c202276616c7565223a200000000000000000602082015250565b61507981614766565b811461508457600080fd5b50565b61509081614778565b811461509b57600080fd5b50565b6150a781614784565b81146150b257600080fd5b50565b6150be816147d0565b81146150c957600080fd5b5056fe506c617965722061747461636b656420626f73732e204e657720626f73732068703a2025734142434445464748494a4b4c4d4e4f505152535455565758595a6162636465666768696a6b6c6d6e6f707172737475767778797a303132333435363738392b2f426f73732061747461636b656420706c617965722e204e657720706c617965722068703a2025730a506c61796572206861732025732048502c20257320414420616e642025732053680a0a506c6179657220772f206368617261637465722025732061626f757420746f2061747461636b4d696e746564204e465420772f20746f6b656e496420257320616e6420636861726163746572496e646578202573a2646970667358221220f0c8c771a66d5708832b56c30ca144772c0618aabd716d5ecf5aeaa304c6ff2c64736f6c63430008010033446f6e6520696e697469616c697a696e6720257320772f2048502025732c20696d67202573446f6e6520696e697469616c697a696e6720626f737320257320772f2048502025732c20696d67202573",
  "linkReferences": {},
  "deployedLinkReferences": {}
}